{
  "_format": "hh-sol-artifact-1",
  "contractName": "MyToken",
  "sourceName": "contracts/Mytoken.sol",
  "abi": [
    {
      "inputs": [],
      "stateMutability": "nonpayable",
      "type": "constructor"
    },
    {
      "anonymous": false,
      "inputs": [
        {
          "indexed": true,
          "internalType": "address",
          "name": "tokenOwner",
          "type": "address"
        },
        {
          "indexed": true,
          "internalType": "address",
          "name": "spender",
          "type": "address"
        },
        {
          "indexed": false,
          "internalType": "uint256",
          "name": "tokens",
          "type": "uint256"
        }
      ],
      "name": "Approval",
      "type": "event"
    },
    {
      "anonymous": false,
      "inputs": [
        {
          "indexed": true,
          "internalType": "address",
          "name": "from",
          "type": "address"
        },
        {
          "indexed": true,
          "internalType": "address",
          "name": "to",
          "type": "address"
        },
        {
          "indexed": false,
          "internalType": "uint256",
          "name": "tokens",
          "type": "uint256"
        }
      ],
      "name": "Transfer",
      "type": "event"
    },
    {
      "inputs": [],
      "name": "_totalSupply",
      "outputs": [
        {
          "internalType": "uint256",
          "name": "",
          "type": "uint256"
        }
      ],
      "stateMutability": "view",
      "type": "function"
    },
    {
      "inputs": [
        {
          "internalType": "address",
          "name": "tokenOwner",
          "type": "address"
        },
        {
          "internalType": "address",
          "name": "spender",
          "type": "address"
        }
      ],
      "name": "allowance",
      "outputs": [
        {
          "internalType": "uint256",
          "name": "remaining",
          "type": "uint256"
        }
      ],
      "stateMutability": "view",
      "type": "function"
    },
    {
      "inputs": [
        {
          "internalType": "address",
          "name": "spender",
          "type": "address"
        },
        {
          "internalType": "uint256",
          "name": "tokens",
          "type": "uint256"
        }
      ],
      "name": "approve",
      "outputs": [
        {
          "internalType": "bool",
          "name": "success",
          "type": "bool"
        }
      ],
      "stateMutability": "nonpayable",
      "type": "function"
    },
    {
      "inputs": [
        {
          "internalType": "address",
          "name": "tokenOwner",
          "type": "address"
        }
      ],
      "name": "balanceOf",
      "outputs": [
        {
          "internalType": "uint256",
          "name": "balance",
          "type": "uint256"
        }
      ],
      "stateMutability": "view",
      "type": "function"
    },
    {
      "inputs": [],
      "name": "decimals",
      "outputs": [
        {
          "internalType": "uint8",
          "name": "",
          "type": "uint8"
        }
      ],
      "stateMutability": "view",
      "type": "function"
    },
    {
      "inputs": [],
      "name": "name",
      "outputs": [
        {
          "internalType": "string",
          "name": "",
          "type": "string"
        }
      ],
      "stateMutability": "view",
      "type": "function"
    },
    {
      "inputs": [],
      "name": "symbol",
      "outputs": [
        {
          "internalType": "string",
          "name": "",
          "type": "string"
        }
      ],
      "stateMutability": "view",
      "type": "function"
    },
    {
      "inputs": [],
      "name": "totalSupply",
      "outputs": [
        {
          "internalType": "uint256",
          "name": "",
          "type": "uint256"
        }
      ],
      "stateMutability": "view",
      "type": "function"
    },
    {
      "inputs": [
        {
          "internalType": "address",
          "name": "to",
          "type": "address"
        },
        {
          "internalType": "uint256",
          "name": "tokens",
          "type": "uint256"
        }
      ],
      "name": "transfer",
      "outputs": [
        {
          "internalType": "bool",
          "name": "success",
          "type": "bool"
        }
      ],
      "stateMutability": "nonpayable",
      "type": "function"
    },
    {
      "inputs": [
        {
          "internalType": "address",
          "name": "from",
          "type": "address"
        },
        {
          "internalType": "address",
          "name": "to",
          "type": "address"
        },
        {
          "internalType": "uint256",
          "name": "tokens",
          "type": "uint256"
        }
      ],
      "name": "transferFrom",
      "outputs": [
        {
          "internalType": "bool",
          "name": "success",
          "type": "bool"
        }
      ],
      "stateMutability": "nonpayable",
      "type": "function"
    }
  ],
  "bytecode": "0x608060405234801561001057600080fd5b5060408051808201909152600881526727bab92a37b5b2b760c11b602082015260009061003d9082610172565b506040805180820190915260038152624f544b60e81b60208201526001906100659082610172565b506002805460ff1916600a1790556509184e72a00060038190553360008181526004602052604080822084905551919290917fddf252ad1be2c89b69c2b068fc378daa952ba7f163c4a11628f55a4df523b3ef916100c69190815260200190565b60405180910390a3610231565b634e487b7160e01b600052604160045260246000fd5b600181811c908216806100fd57607f821691505b60208210810361011d57634e487b7160e01b600052602260045260246000fd5b50919050565b601f82111561016d57600081815260208120601f850160051c8101602086101561014a5750805b601f850160051c820191505b8181101561016957828155600101610156565b5050505b505050565b81516001600160401b0381111561018b5761018b6100d3565b61019f8161019984546100e9565b84610123565b602080601f8311600181146101d457600084156101bc5750858301515b600019600386901b1c1916600185901b178555610169565b600085815260208120601f198616915b82811015610203578886015182559484019460019091019084016101e4565b50858210156102215787850151600019600388901b60f8161c191681555b5050505050600190811b01905550565b61065a806102406000396000f3fe608060405234801561001057600080fd5b50600436106100be5760003560e01c80633eaaf86b1161007657806395d89b411161005b57806395d89b411461017e578063a9059cbb14610186578063dd62ed3e1461019957600080fd5b80633eaaf86b1461014c57806370a082311461015557600080fd5b806318160ddd116100a757806318160ddd1461010457806323b872dd1461011a578063313ce5671461012d57600080fd5b806306fdde03146100c3578063095ea7b3146100e1575b600080fd5b6100cb6101d2565b6040516100d891906104b2565b60405180910390f35b6100f46100ef36600461051c565b610260565b60405190151581526020016100d8565b61010c6102cd565b6040519081526020016100d8565b6100f4610128366004610546565b61030b565b60025461013a9060ff1681565b60405160ff90911681526020016100d8565b61010c60035481565b61010c610163366004610582565b6001600160a01b031660009081526004602052604090205490565b6100cb61040c565b6100f461019436600461051c565b610419565b61010c6101a73660046105a4565b6001600160a01b03918216600090815260056020908152604080832093909416825291909152205490565b600080546101df906105d7565b80601f016020809104026020016040519081016040528092919081815260200182805461020b906105d7565b80156102585780601f1061022d57610100808354040283529160200191610258565b820191906000526020600020905b81548152906001019060200180831161023b57829003601f168201915b505050505081565b3360008181526005602090815260408083206001600160a01b038716808552925280832085905551919290917f8c5be1e5ebec7d5bd14f71427d1e84f3dd0314c0f7b2291e5b200ac8c7c3b925906102bb9086815260200190565b60405180910390a35060015b92915050565b600080805260046020527f17ef568e3e12ab5b9c7254a8d58478811de00f9e6eb34345acd53bf8fd09d3ec546003546103069190610627565b905090565b6001600160a01b03831660009081526004602052604081205461032f908390610627565b6001600160a01b0385166000908152600460209081526040808320939093556005815282822033835290522054610367908390610627565b6001600160a01b0380861660009081526005602090815260408083203384528252808320949094559186168152600490915220546103a690839061063a565b6001600160a01b0380851660008181526004602052604090819020939093559151908616907fddf252ad1be2c89b69c2b068fc378daa952ba7f163c4a11628f55a4df523b3ef906103fa9086815260200190565b60405180910390a35060019392505050565b600180546101df906105d7565b33600090815260046020526040812054610434908390610627565b33600090815260046020526040808220929092556001600160a01b0385168152205461046190839061063a565b6001600160a01b0384166000818152600460205260409081902092909255905133907fddf252ad1be2c89b69c2b068fc378daa952ba7f163c4a11628f55a4df523b3ef906102bb9086815260200190565b600060208083528351808285015260005b818110156104df578581018301518582016040015282016104c3565b506000604082860101526040601f19601f8301168501019250505092915050565b80356001600160a01b038116811461051757600080fd5b919050565b6000806040838503121561052f57600080fd5b61053883610500565b946020939093013593505050565b60008060006060848603121561055b57600080fd5b61056484610500565b925061057260208501610500565b9150604084013590509250925092565b60006020828403121561059457600080fd5b61059d82610500565b9392505050565b600080604083850312156105b757600080fd5b6105c083610500565b91506105ce60208401610500565b90509250929050565b600181811c908216806105eb57607f821691505b60208210810361060b57634e487b7160e01b600052602260045260246000fd5b50919050565b634e487b7160e01b600052601160045260246000fd5b818103818111156102c7576102c7610611565b808201808211156102c7576102c761061156fea164736f6c6343000811000a",
  "linkReferences": {},
  "deployedLinkReferences": {}
}