{
  "_format": "hh-sol-artifact-1",
  "contractName": "NFT",
  "sourceName": "contracts/Mint.sol",
  "abi": [
    {
      "inputs": [
        {
          "internalType": "address",
          "name": "_contractaddress",
          "type": "address"
        }
      ],
      "stateMutability": "nonpayable",
      "type": "constructor"
    },
    {
      "anonymous": false,
      "inputs": [
        {
          "indexed": true,
          "internalType": "address",
          "name": "owner",
          "type": "address"
        },
        {
          "indexed": true,
          "internalType": "address",
          "name": "approved",
          "type": "address"
        },
        {
          "indexed": true,
          "internalType": "uint256",
          "name": "tokenId",
          "type": "uint256"
        }
      ],
      "name": "Approval",
      "type": "event"
    },
    {
      "anonymous": false,
      "inputs": [
        {
          "indexed": true,
          "internalType": "address",
          "name": "owner",
          "type": "address"
        },
        {
          "indexed": true,
          "internalType": "address",
          "name": "operator",
          "type": "address"
        },
        {
          "indexed": false,
          "internalType": "bool",
          "name": "approved",
          "type": "bool"
        }
      ],
      "name": "ApprovalForAll",
      "type": "event"
    },
    {
      "anonymous": false,
      "inputs": [
        {
          "indexed": true,
          "internalType": "address",
          "name": "previousOwner",
          "type": "address"
        },
        {
          "indexed": true,
          "internalType": "address",
          "name": "newOwner",
          "type": "address"
        }
      ],
      "name": "OwnershipTransferred",
      "type": "event"
    },
    {
      "anonymous": false,
      "inputs": [
        {
          "indexed": true,
          "internalType": "address",
          "name": "from",
          "type": "address"
        },
        {
          "indexed": true,
          "internalType": "address",
          "name": "to",
          "type": "address"
        },
        {
          "indexed": true,
          "internalType": "uint256",
          "name": "tokenId",
          "type": "uint256"
        }
      ],
      "name": "Transfer",
      "type": "event"
    },
    {
      "inputs": [],
      "name": "BASE_URI",
      "outputs": [
        {
          "internalType": "string",
          "name": "",
          "type": "string"
        }
      ],
      "stateMutability": "view",
      "type": "function"
    },
    {
      "inputs": [],
      "name": "Maxsupply",
      "outputs": [
        {
          "internalType": "uint256",
          "name": "",
          "type": "uint256"
        }
      ],
      "stateMutability": "view",
      "type": "function"
    },
    {
      "inputs": [
        {
          "internalType": "address",
          "name": "to",
          "type": "address"
        },
        {
          "internalType": "uint256",
          "name": "tokenId",
          "type": "uint256"
        }
      ],
      "name": "approve",
      "outputs": [],
      "stateMutability": "nonpayable",
      "type": "function"
    },
    {
      "inputs": [
        {
          "internalType": "address",
          "name": "owner",
          "type": "address"
        }
      ],
      "name": "balanceOf",
      "outputs": [
        {
          "internalType": "uint256",
          "name": "",
          "type": "uint256"
        }
      ],
      "stateMutability": "view",
      "type": "function"
    },
    {
      "inputs": [],
      "name": "baseExtension",
      "outputs": [
        {
          "internalType": "string",
          "name": "",
          "type": "string"
        }
      ],
      "stateMutability": "view",
      "type": "function"
    },
    {
      "inputs": [
        {
          "internalType": "string",
          "name": "baseURI",
          "type": "string"
        }
      ],
      "name": "changebaseURI",
      "outputs": [],
      "stateMutability": "nonpayable",
      "type": "function"
    },
    {
      "inputs": [
        {
          "internalType": "address",
          "name": "_to",
          "type": "address"
        }
      ],
      "name": "createToken",
      "outputs": [
        {
          "internalType": "uint256",
          "name": "",
          "type": "uint256"
        }
      ],
      "stateMutability": "payable",
      "type": "function"
    },
    {
      "inputs": [
        {
          "internalType": "uint256",
          "name": "tokenId",
          "type": "uint256"
        }
      ],
      "name": "getApproved",
      "outputs": [
        {
          "internalType": "address",
          "name": "",
          "type": "address"
        }
      ],
      "stateMutability": "view",
      "type": "function"
    },
    {
      "inputs": [
        {
          "internalType": "address",
          "name": "owner",
          "type": "address"
        },
        {
          "internalType": "address",
          "name": "operator",
          "type": "address"
        }
      ],
      "name": "isApprovedForAll",
      "outputs": [
        {
          "internalType": "bool",
          "name": "",
          "type": "bool"
        }
      ],
      "stateMutability": "view",
      "type": "function"
    },
    {
      "inputs": [],
      "name": "marketContract",
      "outputs": [
        {
          "internalType": "address",
          "name": "",
          "type": "address"
        }
      ],
      "stateMutability": "view",
      "type": "function"
    },
    {
      "inputs": [],
      "name": "mintingRate",
      "outputs": [
        {
          "internalType": "uint256",
          "name": "",
          "type": "uint256"
        }
      ],
      "stateMutability": "view",
      "type": "function"
    },
    {
      "inputs": [],
      "name": "name",
      "outputs": [
        {
          "internalType": "string",
          "name": "",
          "type": "string"
        }
      ],
      "stateMutability": "view",
      "type": "function"
    },
    {
      "inputs": [],
      "name": "owner",
      "outputs": [
        {
          "internalType": "address",
          "name": "",
          "type": "address"
        }
      ],
      "stateMutability": "view",
      "type": "function"
    },
    {
      "inputs": [
        {
          "internalType": "uint256",
          "name": "tokenId",
          "type": "uint256"
        }
      ],
      "name": "ownerOf",
      "outputs": [
        {
          "internalType": "address",
          "name": "",
          "type": "address"
        }
      ],
      "stateMutability": "view",
      "type": "function"
    },
    {
      "inputs": [],
      "name": "renounceOwnership",
      "outputs": [],
      "stateMutability": "nonpayable",
      "type": "function"
    },
    {
      "inputs": [
        {
          "internalType": "address",
          "name": "from",
          "type": "address"
        },
        {
          "internalType": "address",
          "name": "to",
          "type": "address"
        },
        {
          "internalType": "uint256",
          "name": "tokenId",
          "type": "uint256"
        }
      ],
      "name": "safeTransferFrom",
      "outputs": [],
      "stateMutability": "nonpayable",
      "type": "function"
    },
    {
      "inputs": [
        {
          "internalType": "address",
          "name": "from",
          "type": "address"
        },
        {
          "internalType": "address",
          "name": "to",
          "type": "address"
        },
        {
          "internalType": "uint256",
          "name": "tokenId",
          "type": "uint256"
        },
        {
          "internalType": "bytes",
          "name": "data",
          "type": "bytes"
        }
      ],
      "name": "safeTransferFrom",
      "outputs": [],
      "stateMutability": "nonpayable",
      "type": "function"
    },
    {
      "inputs": [
        {
          "internalType": "address",
          "name": "operator",
          "type": "address"
        },
        {
          "internalType": "bool",
          "name": "approved",
          "type": "bool"
        }
      ],
      "name": "setApprovalForAll",
      "outputs": [],
      "stateMutability": "nonpayable",
      "type": "function"
    },
    {
      "inputs": [],
      "name": "supply",
      "outputs": [
        {
          "internalType": "uint256",
          "name": "",
          "type": "uint256"
        }
      ],
      "stateMutability": "view",
      "type": "function"
    },
    {
      "inputs": [
        {
          "internalType": "bytes4",
          "name": "interfaceId",
          "type": "bytes4"
        }
      ],
      "name": "supportsInterface",
      "outputs": [
        {
          "internalType": "bool",
          "name": "",
          "type": "bool"
        }
      ],
      "stateMutability": "view",
      "type": "function"
    },
    {
      "inputs": [],
      "name": "symbol",
      "outputs": [
        {
          "internalType": "string",
          "name": "",
          "type": "string"
        }
      ],
      "stateMutability": "view",
      "type": "function"
    },
    {
      "inputs": [],
      "name": "tokenAddress",
      "outputs": [
        {
          "internalType": "contract IERC20",
          "name": "",
          "type": "address"
        }
      ],
      "stateMutability": "view",
      "type": "function"
    },
    {
      "inputs": [
        {
          "internalType": "uint256",
          "name": "tokenId",
          "type": "uint256"
        }
      ],
      "name": "tokenURI",
      "outputs": [
        {
          "internalType": "string",
          "name": "",
          "type": "string"
        }
      ],
      "stateMutability": "view",
      "type": "function"
    },
    {
      "inputs": [
        {
          "internalType": "address",
          "name": "from",
          "type": "address"
        },
        {
          "internalType": "address",
          "name": "to",
          "type": "address"
        },
        {
          "internalType": "uint256",
          "name": "tokenId",
          "type": "uint256"
        }
      ],
      "name": "transferFrom",
      "outputs": [],
      "stateMutability": "nonpayable",
      "type": "function"
    },
    {
      "inputs": [
        {
          "internalType": "address",
          "name": "newOwner",
          "type": "address"
        }
      ],
      "name": "transferOwnership",
      "outputs": [],
      "stateMutability": "nonpayable",
      "type": "function"
    },
    {
      "inputs": [],
      "name": "withdraw",
      "outputs": [],
      "stateMutability": "payable",
      "type": "function"
    }
  ],
  "bytecode": "0x60c06040526005608090815264173539b7b760d91b60a052600c9062000026908262000250565b50604051806080016040528060508152602001620020a460509139600d9062000050908262000250565b506004600e556003600f5564012a05f2006010553480156200007157600080fd5b50604051620020f4380380620020f483398101604081905262000094916200031c565b6040518060400160405280601481526020017f43727970746f204c65616775652047616d696e670000000000000000000000008152506040518060400160405280600681526020016510d311d3919560d21b8152508160009081620000fa919062000250565b50600162000109828262000250565b50505062000126620001206200015560201b60201c565b62000159565b600980546001600160a01b039092166001600160a01b0319928316179055600b8054909116331790556200034e565b3390565b600780546001600160a01b038381166001600160a01b0319831681179093556040519116919082907f8be0079c531659141344cd1fd0a4f28419497f9722a3daafe3b4186f6b6457e090600090a35050565b634e487b7160e01b600052604160045260246000fd5b600181811c90821680620001d657607f821691505b602082108103620001f757634e487b7160e01b600052602260045260246000fd5b50919050565b601f8211156200024b57600081815260208120601f850160051c81016020861015620002265750805b601f850160051c820191505b81811015620002475782815560010162000232565b5050505b505050565b81516001600160401b038111156200026c576200026c620001ab565b62000284816200027d8454620001c1565b84620001fd565b602080601f831160018114620002bc5760008415620002a35750858301515b600019600386901b1c1916600185901b17855562000247565b600085815260208120601f198616915b82811015620002ed57888601518255948401946001909101908401620002cc565b50858210156200030c5787850151600019600388901b60f8161c191681555b5050505050600190811b01905550565b6000602082840312156200032f57600080fd5b81516001600160a01b03811681146200034757600080fd5b9392505050565b611d46806200035e6000396000f3fe6080604052600436106101a15760003560e01c806395d89b41116100e1578063be4299a61161008a578063c87b56dd11610064578063c87b56dd1461043f578063dbddb26a1461045f578063e985e9c514610474578063f2fde38b146104bd57600080fd5b8063be4299a614610401578063c21ab7f914610417578063c66828621461042a57600080fd5b8063a1794bcd116100bb578063a1794bcd146103a1578063a22cb465146103c1578063b88d4fde146103e157600080fd5b806395d89b41146103565780639d76ea581461036b5780639f7ff8891461038b57600080fd5b80633ccfd60b1161014e5780636352211e116101285780636352211e146102e357806370a0823114610303578063715018a6146103235780638da5cb5b1461033857600080fd5b80633ccfd60b1461029b57806342842e0e146102a3578063560f45ca146102c357600080fd5b8063081812fc1161017f578063081812fc14610221578063095ea7b31461025957806323b872dd1461027b57600080fd5b806301ffc9a7146101a6578063047fc9aa146101db57806306fdde03146101ff575b600080fd5b3480156101b257600080fd5b506101c66101c13660046116ed565b6104dd565b60405190151581526020015b60405180910390f35b3480156101e757600080fd5b506101f1600f5481565b6040519081526020016101d2565b34801561020b57600080fd5b5061021461052f565b6040516101d2919061175a565b34801561022d57600080fd5b5061024161023c36600461176d565b6105c1565b6040516001600160a01b0390911681526020016101d2565b34801561026557600080fd5b506102796102743660046117a2565b6105e8565b005b34801561028757600080fd5b506102796102963660046117cc565b610720565b610279610798565b3480156102af57600080fd5b506102796102be3660046117cc565b610888565b3480156102cf57600080fd5b506102796102de366004611894565b6108a3565b3480156102ef57600080fd5b506102416102fe36600461176d565b6108bb565b34801561030f57600080fd5b506101f161031e3660046118dd565b610920565b34801561032f57600080fd5b506102796109ba565b34801561034457600080fd5b506007546001600160a01b0316610241565b34801561036257600080fd5b506102146109ce565b34801561037757600080fd5b50600954610241906001600160a01b031681565b34801561039757600080fd5b506101f160105481565b3480156103ad57600080fd5b50600a54610241906001600160a01b031681565b3480156103cd57600080fd5b506102796103dc366004611906565b6109dd565b3480156103ed57600080fd5b506102796103fc36600461193d565b6109e8565b34801561040d57600080fd5b506101f1600e5481565b6101f16104253660046118dd565b610a67565b34801561043657600080fd5b50610214610b5f565b34801561044b57600080fd5b5061021461045a36600461176d565b610bed565b34801561046b57600080fd5b50610214610cd9565b34801561048057600080fd5b506101c661048f3660046119b9565b6001600160a01b03918216600090815260056020908152604080832093909416825291909152205460ff1690565b3480156104c957600080fd5b506102796104d83660046118dd565b610ce6565b60006001600160e01b031982166380ac58cd60e01b148061050e57506001600160e01b03198216635b5e139f60e01b145b8061052957506301ffc9a760e01b6001600160e01b03198316145b92915050565b60606000805461053e906119ec565b80601f016020809104026020016040519081016040528092919081815260200182805461056a906119ec565b80156105b75780601f1061058c576101008083540402835291602001916105b7565b820191906000526020600020905b81548152906001019060200180831161059a57829003601f168201915b5050505050905090565b60006105cc82610d73565b506000908152600460205260409020546001600160a01b031690565b60006105f3826108bb565b9050806001600160a01b0316836001600160a01b0316036106655760405162461bcd60e51b815260206004820152602160248201527f4552433732313a20617070726f76616c20746f2063757272656e74206f776e656044820152603960f91b60648201526084015b60405180910390fd5b336001600160a01b038216148061069f57506001600160a01b038116600090815260056020908152604080832033845290915290205460ff165b6107115760405162461bcd60e51b815260206004820152603e60248201527f4552433732313a20617070726f76652063616c6c6572206973206e6f7420746f60448201527f6b656e206f776e6572206e6f7220617070726f76656420666f7220616c6c0000606482015260840161065c565b61071b8383610dd7565b505050565b61072a3382610e45565b61078d5760405162461bcd60e51b815260206004820152602e60248201527f4552433732313a2063616c6c6572206973206e6f7420746f6b656e206f776e6560448201526d1c881b9bdc88185c1c1c9bdd995960921b606482015260840161065c565b61071b838383610ec4565b6107a0611078565b6009546040516370a0823160e01b81523060048201526001600160a01b039091169063a9059cbb90339083906370a0823190602401602060405180830381865afa1580156107f2573d6000803e3d6000fd5b505050506040513d601f19601f820116820180604052508101906108169190611a26565b6040516001600160e01b031960e085901b1681526001600160a01b03909216600483015260248201526044016020604051808303816000875af1158015610861573d6000803e3d6000fd5b505050506040513d601f19601f820116820180604052508101906108859190611a3f565b50565b61071b838383604051806020016040528060008152506109e8565b6108ab611078565b600d6108b78282611aaa565b5050565b6000818152600260205260408120546001600160a01b0316806105295760405162461bcd60e51b815260206004820152601860248201527f4552433732313a20696e76616c696420746f6b656e2049440000000000000000604482015260640161065c565b60006001600160a01b03821661099e5760405162461bcd60e51b815260206004820152602960248201527f4552433732313a2061646472657373207a65726f206973206e6f74206120766160448201527f6c6964206f776e65720000000000000000000000000000000000000000000000606482015260840161065c565b506001600160a01b031660009081526003602052604090205490565b6109c2611078565b6109cc60006110d2565b565b60606001805461053e906119ec565b6108b7338383611124565b6109f23383610e45565b610a555760405162461bcd60e51b815260206004820152602e60248201527f4552433732313a2063616c6c6572206973206e6f7420746f6b656e206f776e6560448201526d1c881b9bdc88185c1c1c9bdd995960921b606482015260840161065c565b610a61848484846111f2565b50505050565b6000610a77600880546001019055565b6000610a8260085490565b90506003811115610ad55760405162461bcd60e51b815260206004820152601a60248201527f4e465420636f6c6c656374696f6e20697320736f6c64206f7574000000000000604482015260640161065c565b6009546010546040516323b872dd60e01b815233600482015230602482015260448101919091526001600160a01b03909116906323b872dd906064016020604051808303816000875af1158015610b30573d6000803e3d6000fd5b505050506040513d601f19601f82011682018060405250810190610b549190611a3f565b506105298382611270565b600c8054610b6c906119ec565b80601f0160208091040260200160405190810160405280929190818152602001828054610b98906119ec565b8015610be55780601f10610bba57610100808354040283529160200191610be5565b820191906000526020600020905b815481529060010190602001808311610bc857829003601f168201915b505050505081565b6000818152600260205260409020546060906001600160a01b0316610c7a5760405162461bcd60e51b815260206004820152602f60248201527f4552433732314d657461646174613a2055524920717565727920666f72206e6f60448201527f6e6578697374656e7420746f6b656e0000000000000000000000000000000000606482015260840161065c565b6000610c8461128a565b90506000815111610ca45760405180602001604052806000815250610cd2565b80610cae846112b2565b600c604051602001610cc293929190611bdd565b6040516020818303038152906040525b9392505050565b600d8054610b6c906119ec565b610cee611078565b6001600160a01b038116610d6a5760405162461bcd60e51b815260206004820152602660248201527f4f776e61626c653a206e6577206f776e657220697320746865207a65726f206160448201527f6464726573730000000000000000000000000000000000000000000000000000606482015260840161065c565b610885816110d2565b6000818152600260205260409020546001600160a01b03166108855760405162461bcd60e51b815260206004820152601860248201527f4552433732313a20696e76616c696420746f6b656e2049440000000000000000604482015260640161065c565b600081815260046020526040902080546001600160a01b0319166001600160a01b0384169081179091558190610e0c826108bb565b6001600160a01b03167f8c5be1e5ebec7d5bd14f71427d1e84f3dd0314c0f7b2291e5b200ac8c7c3b92560405160405180910390a45050565b600080610e51836108bb565b9050806001600160a01b0316846001600160a01b03161480610e9857506001600160a01b0380821660009081526005602090815260408083209388168352929052205460ff165b80610ebc5750836001600160a01b0316610eb1846105c1565b6001600160a01b0316145b949350505050565b826001600160a01b0316610ed7826108bb565b6001600160a01b031614610f535760405162461bcd60e51b815260206004820152602560248201527f4552433732313a207472616e736665722066726f6d20696e636f72726563742060448201527f6f776e6572000000000000000000000000000000000000000000000000000000606482015260840161065c565b6001600160a01b038216610fb55760405162461bcd60e51b8152602060048201526024808201527f4552433732313a207472616e7366657220746f20746865207a65726f206164646044820152637265737360e01b606482015260840161065c565b610fc0600082610dd7565b6001600160a01b0383166000908152600360205260408120805460019290610fe9908490611c30565b90915550506001600160a01b0382166000908152600360205260408120805460019290611017908490611c43565b909155505060008181526002602052604080822080546001600160a01b0319166001600160a01b0386811691821790925591518493918716917fddf252ad1be2c89b69c2b068fc378daa952ba7f163c4a11628f55a4df523b3ef91a4505050565b6007546001600160a01b031633146109cc5760405162461bcd60e51b815260206004820181905260248201527f4f776e61626c653a2063616c6c6572206973206e6f7420746865206f776e6572604482015260640161065c565b600780546001600160a01b038381166001600160a01b0319831681179093556040519116919082907f8be0079c531659141344cd1fd0a4f28419497f9722a3daafe3b4186f6b6457e090600090a35050565b816001600160a01b0316836001600160a01b0316036111855760405162461bcd60e51b815260206004820152601960248201527f4552433732313a20617070726f766520746f2063616c6c657200000000000000604482015260640161065c565b6001600160a01b03838116600081815260056020908152604080832094871680845294825291829020805460ff191686151590811790915591519182527f17307eab39ab6107e8899845ad3d59bd9653f200f220920489ca2b5937696c31910160405180910390a3505050565b6111fd848484610ec4565b611209848484846113cb565b610a615760405162461bcd60e51b815260206004820152603260248201527f4552433732313a207472616e7366657220746f206e6f6e20455243373231526560448201527131b2b4bb32b91034b6b83632b6b2b73a32b960711b606482015260840161065c565b6108b7828260405180602001604052806000815250611517565b6060600d60405160200161129e9190611c56565b604051602081830303815290604052905090565b6060816000036112d95750506040805180820190915260018152600360fc1b602082015290565b8160005b811561130357806112ed81611c73565b91506112fc9050600a83611ca2565b91506112dd565b60008167ffffffffffffffff81111561131e5761131e611808565b6040519080825280601f01601f191660200182016040528015611348576020820181803683370190505b5090505b8415610ebc5761135d600183611c30565b915061136a600a86611cb6565b611375906030611c43565b60f81b81838151811061138a5761138a611cca565b60200101907effffffffffffffffffffffffffffffffffffffffffffffffffffffffffffff1916908160001a9053506113c4600a86611ca2565b945061134c565b60006001600160a01b0384163b1561150c57604051630a85bd0160e11b81526001600160a01b0385169063150b7a029061140f903390899088908890600401611ce0565b6020604051808303816000875af192505050801561144a575060408051601f3d908101601f1916820190925261144791810190611d1c565b60015b6114f2573d808015611478576040519150601f19603f3d011682016040523d82523d6000602084013e61147d565b606091505b5080516000036114ea5760405162461bcd60e51b815260206004820152603260248201527f4552433732313a207472616e7366657220746f206e6f6e20455243373231526560448201527131b2b4bb32b91034b6b83632b6b2b73a32b960711b606482015260840161065c565b805181602001fd5b6001600160e01b031916630a85bd0160e11b149050610ebc565b506001949350505050565b6115218383611595565b61152e60008484846113cb565b61071b5760405162461bcd60e51b815260206004820152603260248201527f4552433732313a207472616e7366657220746f206e6f6e20455243373231526560448201527131b2b4bb32b91034b6b83632b6b2b73a32b960711b606482015260840161065c565b6001600160a01b0382166115eb5760405162461bcd60e51b815260206004820181905260248201527f4552433732313a206d696e7420746f20746865207a65726f2061646472657373604482015260640161065c565b6000818152600260205260409020546001600160a01b0316156116505760405162461bcd60e51b815260206004820152601c60248201527f4552433732313a20746f6b656e20616c7265616479206d696e74656400000000604482015260640161065c565b6001600160a01b0382166000908152600360205260408120805460019290611679908490611c43565b909155505060008181526002602052604080822080546001600160a01b0319166001600160a01b03861690811790915590518392907fddf252ad1be2c89b69c2b068fc378daa952ba7f163c4a11628f55a4df523b3ef908290a45050565b6001600160e01b03198116811461088557600080fd5b6000602082840312156116ff57600080fd5b8135610cd2816116d7565b60005b8381101561172557818101518382015260200161170d565b50506000910152565b6000815180845261174681602086016020860161170a565b601f01601f19169290920160200192915050565b602081526000610cd2602083018461172e565b60006020828403121561177f57600080fd5b5035919050565b80356001600160a01b038116811461179d57600080fd5b919050565b600080604083850312156117b557600080fd5b6117be83611786565b946020939093013593505050565b6000806000606084860312156117e157600080fd5b6117ea84611786565b92506117f860208501611786565b9150604084013590509250925092565b634e487b7160e01b600052604160045260246000fd5b600067ffffffffffffffff8084111561183957611839611808565b604051601f8501601f19908116603f0116810190828211818310171561186157611861611808565b8160405280935085815286868601111561187a57600080fd5b858560208301376000602087830101525050509392505050565b6000602082840312156118a657600080fd5b813567ffffffffffffffff8111156118bd57600080fd5b8201601f810184136118ce57600080fd5b610ebc8482356020840161181e565b6000602082840312156118ef57600080fd5b610cd282611786565b801515811461088557600080fd5b6000806040838503121561191957600080fd5b61192283611786565b91506020830135611932816118f8565b809150509250929050565b6000806000806080858703121561195357600080fd5b61195c85611786565b935061196a60208601611786565b925060408501359150606085013567ffffffffffffffff81111561198d57600080fd5b8501601f8101871361199e57600080fd5b6119ad8782356020840161181e565b91505092959194509250565b600080604083850312156119cc57600080fd5b6119d583611786565b91506119e360208401611786565b90509250929050565b600181811c90821680611a0057607f821691505b602082108103611a2057634e487b7160e01b600052602260045260246000fd5b50919050565b600060208284031215611a3857600080fd5b5051919050565b600060208284031215611a5157600080fd5b8151610cd2816118f8565b601f82111561071b57600081815260208120601f850160051c81016020861015611a835750805b601f850160051c820191505b81811015611aa257828155600101611a8f565b505050505050565b815167ffffffffffffffff811115611ac457611ac4611808565b611ad881611ad284546119ec565b84611a5c565b602080601f831160018114611b0d5760008415611af55750858301515b600019600386901b1c1916600185901b178555611aa2565b600085815260208120601f198616915b82811015611b3c57888601518255948401946001909101908401611b1d565b5085821015611b5a5787850151600019600388901b60f8161c191681555b5050505050600190811b01905550565b60008154611b77816119ec565b60018281168015611b8f5760018114611ba457611bd3565b60ff1984168752821515830287019450611bd3565b8560005260208060002060005b85811015611bca5781548a820152908401908201611bb1565b50505082870194505b5050505092915050565b60008451611bef81846020890161170a565b845190830190611c0381836020890161170a565b611c0f81830186611b6a565b979650505050505050565b634e487b7160e01b600052601160045260246000fd5b8181038181111561052957610529611c1a565b8082018082111561052957610529611c1a565b6000611c628284611b6a565b602f60f81b81526001019392505050565b600060018201611c8557611c85611c1a565b5060010190565b634e487b7160e01b600052601260045260246000fd5b600082611cb157611cb1611c8c565b500490565b600082611cc557611cc5611c8c565b500690565b634e487b7160e01b600052603260045260246000fd5b60006001600160a01b03808716835280861660208401525083604083015260806060830152611d12608083018461172e565b9695505050505050565b600060208284031215611d2e57600080fd5b8151610cd2816116d756fea164736f6c6343000811000a68747470733a2f2f676174657761792e70696e6174612e636c6f75642f697066732f516d5953534170684531576571564150776a39316675445a6f374c6953526b55654c51333678316652797a6d6531",
  "linkReferences": {},
  "deployedLinkReferences": {}
}